:020000040800F2
:100000000000022029050008270500082505000832
:10001000250500082505000825050008000000004A
:10002000000000000000000000000000270500089C
:100030002705000800000000270500082705000824
:1000400025050008250500082505000825050008E8
:1000500025050008250500082505000825050008D8
:1000600025050008250500082505000825050008C8
:1000700025050008250500082505000825050008B8
:1000800025050008250500082505000825050008A8
:100090002505000825050008250500082505000898
:1000A0002505000825050008250500082505000888
:1000B0002505000825050008250500082505000878
:1000C0002505000825050008250500082505000868
:1000D0002505000825050008250500082505000858
:1000E0002505000825050008250500082505000848
:1000F0002505000825050008250500082505000838
:100100002505000825050008250500082505000827
:10011000250500082505000825050008F901000847
:100120002505000825050008250500082505000807
:1001300025050008250500082505000825050008F7
:1001400025050008250500082505000825050008E7
:1001500025050008250500082505000825050008D7
:1001600025050008250500082505000825050008C7
:1001700025050008250500082505000825050008B7
:1001800025050008250500082505000825050008A7
:100190002505000825050008250500082505000897
:1001A00025050008250500082505000808B540F6C6
:1001B000050000F086F90F210E4800F0ABF90D485C
:1001C00000F094F90B4800F096F90A4800F098F90D
:1001D0000848012100F083F90648012100F083F965
:1001E0003720022100F0FEF9BDE80840372000F07A
:1001F000EBB900BF001400400148012100F073B9C1
:100200000014004008B540F2036000F05AF90120E4
:1002100000F054F8114B1C785B7844EA0324012168
:10022000204600F01FF8FFF7C1FF62B60C4D2046D4
:1002300000F032F840F2F516013EF8D028464FF4AF
:100240007A7100F069F90121284600F067F900F0A1
:10025000D9F9284600F059F930BFEDE70C0600083F
:10026000001400400A460123C0F303118B4082B002
:1002700099B200F00F0303F58013ADF8040080334A
:10028000C0F300209B029042184602D002B000F05A
:10029000A3B802B000F0A2B882B0C0F30313ADF867
:1002A000040000F00F00012100F58010994080301B
:1002B00089B2800202B000F094B8000070B5444CDE
:1002C000444E86B005460DB1B4426AD1E3228DF8A2
:1002D0000220C322D3238DF80420F32201258DF8B8
:1002E00000308DF80620002394228DF801308DF81F
:1002F00003308DF805308DF807308DF808208DF823
:1003000009308DF80A508DF80B501C4606AB03EBF4
:100310004403002213F8180C030900F00F0000F545
:10032000801005FA03F380309BB201218002013472
:1003300000F060F8062CE9D1B2238DF80E3092233C
:100340008DF81030F0238DF81230622300248DF8E0
:10035000143082238DF80F508DF811508DF8135002
:100360008DF815508DF81750ADF80C408DF81630FB
:10037000012506AB03EB4403002213F80C0C030920
:1003800000F00F0000F5801005FA03F380309BB2F7
:1003900011468002013400F02DF8062CE9D106B098
:1003A00070BD20464FF6FF730022032100F022F8B3
:1003B0000022114620464FF6FF7300F03BF820461E
:1003C0004FF6FF72002100F050F804F580647AE7E0
:1003D00000000240002002408161704709048161F1
:1003E0007047436901EA030221EA030141EA02413D
:1003F000816170472DE9F0410568C46800264FF01F
:10040000030E43FA06F7FF070DD577000EFA07FC37
:1004100001FA07F825EA0C0524EA0C0402FA07F7AA
:1004200048EA05053C430136102EEAD10560C46058
:10043000BDE8F081012941680CBF19439943F0B52B
:10044000416081680024032643FA04F5ED0707D5CF
:10045000650006FA05F721EA070102FA05F52943C6
:100460000134102CF0D18160F0BDF0B5076A466A06
:1004700000234FF00F0C42FA03F4E50707D59D0067
:100480000CFA05F427EA040701FA05F52F430133B6
:10049000082BF0D100234FF00F0C03F1080442FAAF
:1004A00004F4E40707D59C000CFA04F526EA0506D7
:1004B00001FA04F426430133082BEED107624662A9
:1004C000F0BD430903F1804303F50E3300F01F0034
:1004D0001968012202FA00F0084318607047C368E7
:1004E0001943C1607047C94301617047036823F035
:1004F000800303607047036843F00803036070479C
:10050000036843F0040303607047036843F001038A
:100510000360704781627047C16270474369194345
:1005200041617047FEE7704738B51D4A1D4B1E49B3
:100530008B4220D31D4A0021934221D34FF0E02368
:100540001B4CD3F8142D1B4D42F40072C3F8142D2C
:10055000D3F8882D42F47002C3F8882DAC4212D330
:10056000154C164DAC4212D3FFF74CFE144C154DF2
:10057000AC4210D338BD52F8040B43F8040BD7E754
:1005800043F8041BD8E754F8043B9847E6E754F8CF
:10059000043B9847E6E754F8043B9847E8E700BF78
:1005A00010060008000000200000002000000020CD
:1005B00010060008100600081006000810060008C3
:1005C0001006000810060008054B420903EB8203E1
:1005D00000F01F00012202FA00F01860704700BF0F
:1005E00000E100E05A2893BF00F16040044B00F0A6
:1005F0000F0000F564408CBFC1540170704700BF0C
:1006000014ED00E0BFF35F8F70470000D3000000DF
:0400000508000529C1
:00000001FF
